{
  "contractName": "Presence_footprint",
  "abi": [
    {
      "constant": true,
      "inputs": [
        {
          "internalType": "uint256",
          "name": "",
          "type": "uint256"
        }
      ],
      "name": "footprints",
      "outputs": [
        {
          "internalType": "uint256",
          "name": "timestamp",
          "type": "uint256"
        },
        {
          "internalType": "uint256",
          "name": "station",
          "type": "uint256"
        }
      ],
      "payable": false,
      "stateMutability": "view",
      "type": "function"
    },
    {
      "constant": false,
      "inputs": [
        {
          "internalType": "uint256",
          "name": "timestamp",
          "type": "uint256"
        },
        {
          "internalType": "uint256",
          "name": "station",
          "type": "uint256"
        }
      ],
      "name": "setFootprint",
      "outputs": [],
      "payable": false,
      "stateMutability": "nonpayable",
      "type": "function"
    },
    {
      "constant": false,
      "inputs": [
        {
          "internalType": "uint256",
          "name": "id",
          "type": "uint256"
        }
      ],
      "name": "getStation",
      "outputs": [
        {
          "internalType": "uint256",
          "name": "",
          "type": "uint256"
        }
      ],
      "payable": false,
      "stateMutability": "nonpayable",
      "type": "function"
    },
    {
      "constant": false,
      "inputs": [
        {
          "internalType": "uint256",
          "name": "id",
          "type": "uint256"
        }
      ],
      "name": "getTimestamp",
      "outputs": [
        {
          "internalType": "uint256",
          "name": "",
          "type": "uint256"
        }
      ],
      "payable": false,
      "stateMutability": "nonpayable",
      "type": "function"
    }
  ],
  "bytecode": "0x608060405234801561001057600080fd5b50610267806100206000396000f3fe608060405234801561001057600080fd5b506004361061004c5760003560e01c8063106e054d146100515780631092c5531461009357806336f7db28146100cb578063b633620c14610114575b600080fd5b61007d6004803603602081101561006757600080fd5b8101908080359060200190929190505050610156565b6040518082815260200191505060405180910390f35b6100c9600480360360408110156100a957600080fd5b81019080803590602001909291908035906020019092919050505061017d565b005b6100f7600480360360208110156100e157600080fd5b81019080803590602001909291905050506101da565b604051808381526020018281526020019250505060405180910390f35b6101406004803603602081101561012a57600080fd5b810190808035906020019092919050505061020b565b6040518082815260200191505060405180910390f35b600080828154811061016457fe5b9060005260206000209060020201600101549050919050565b60006040518060400160405280848152602001838152509080600181540180825580915050906001820390600052602060002090600202016000909192909190915060008201518160000155602082015181600101555050505050565b600081815481106101e757fe5b90600052602060002090600202016000915090508060000154908060010154905082565b600080828154811061021957fe5b906000526020600020906002020160000154905091905056fea265627a7a723158208f38166502a93898037879ce47cd6349f3bb558d01166d8afff68f9e1813f33064736f6c63430005100032",
  "source": "// SPDX-License-Identifier: MIT\npragma solidity >=0.4.22 <0.9.0;\n\ncontract Presence_footprint {\n\n    struct footprint{\n        uint timestamp;\n        uint station;\n    }\n\n    footprint[] public footprints;\n\n    // constructor() public {\n\t\t//     footprints[0] = footprint({\n    //         timestamp:10, station: 1\n    //     });\n\t  // }\n\n    function setFootprint(uint timestamp, uint station) public {\n      // user_footprint = footprint({\n      //       timestamp:timestamp, station: station\n      //   });\n      footprints.push(footprint({\n            timestamp:timestamp, station: station\n        }));\n\n    }\n\n    function getStation(uint id) public returns (uint) {\n        return (footprints[id].station);\n    }\n\n    function getTimestamp(uint id) public returns (uint) {\n        return (footprints[id].timestamp);\n    }\n\n    // function set(uint timestamp, uint station_id) public {\n    //   last_presence_timestamp = timestamp;\n    //   last_station_id = station_id;\n    // }\n\n    // function get() public returns (uint, uint) {\n    //   return (last_presence_timestamp, last_station_id);\n    // }\n\n}\n",
  "sourcePath": "D:\\6Projects\\16Hackathon\\1WhatTheHaeck\\hackathon-2022\\smart-contract-configurator\\contracts\\Presence_footprint.sol",
  "compiler": {
    "name": "solc",
    "version": "0.5.16+commit.9c3226ce.Emscripten.clang"
  },
  "schemaVersion": "3.4.8",
  "updatedAt": "2022-07-07T13:34:10.386Z",
  "networkType": "ethereum",
  "devdoc": {
    "methods": {}
  },
  "userdoc": {
    "methods": {}
  }
}